:020000020000fc
:0100000003fc
:0100010003fb
:0100020000fd
:0100030001fb
:0100040001fa
:0100050003f7
:0100060001f8
:0100070002f6
:0100080003f4
:0100090000f6
:01000a0002f3
:01000b0001f3
:01000c0000f3
:01000d0002f0
:01000e0002ef
:01000f0000f0
:0100100002ed
:0100110003eb
:0100120003ea
:0100130003e9
:0100140000eb
:0100150003e7
:0100160002e7
:0100170002e6
:0100180000e7
:0100190000e6
:01001a0002e3
:01001b0000e4
:01001c0003e0
:01001d0003df
:01001e0003de
:01001f0000e0
:0100200000df
:0100210000de
:0100220003da
:0100230001db
:0100240003d8
:0100250001d9
:0100260000d9
:0100270001d7
:0100280003d4
:0100290000d6
:01002a0003d2
:01002b0001d3
:01002c0002d1
:01002d0002d0
:01002e0002cf
:01002f0000d0
:0100300002cd
:0100310000ce
:0100320001cc
:0100330002ca
:0100340003c8
:0100350000ca
:0100360001c8
:0100370000c8
:0100380003c4
:0100390000c6
:01003a0003c2
:01003b0000c4
:01003c0002c1
:01003d0000c2
:01003e0001c0
:01003f0001bf
:0100400002bd
:0100410001bd
:0100420001bc
:0100430003b9
:0100440000bb
:0100450003b7
:0100460003b6
:0100470000b8
:0100480003b4
:0100490002b4
:01004a0002b3
:01004b0001b3
:01004c0000b3
:01004d0003af
:01004e0002af
:01004f0001af
:0100500000af
:0100510001ad
:0100520002ab
:0100530002aa
:0100540000ab
:0100550003a7
:0100560002a7
:0100570001a7
:0100580003a4
:0100590002a4
:01005a0003a2
:01005b0001a3
:01005c0002a1
:01005d0002a0
:01005e0000a1
:01005f0000a0
:01006000029d
:01006100009e
:01006200029b
:01006300029a
:010064000398
:01006500009a
:010066000297
:010067000296
:010068000097
:010069000294
:01006a000392
:01006b000193
:01006c000390
:01006d000191
:01006e000190
:01006f00038d
:01007000008f
:01007100028c
:01007200038a
:01007300008c
:01007400008b
:010075000387
:010076000386
:010077000385
:010078000285
:010079000086
:01007a000382
:01007b000084
:01007c000380
:01007d00037f
:01007e000180
:01007f00037d
:01008000017e
:01008100027c
:01008200007d
:01008300027a
:010084000279
:010085000179
:010086000376
:010087000177
:010088000275
:010089000274
:01008a000273
:01008b000074
:01008c000073
:01008d00036f
:01008e00036e
:01008f00016f
:01009000016e
:01009100006e
:01009200026b
:01009300006c
:01009400016a
:010095000367
:010096000267
:010097000266
:010098000067
:010099000264
:01009a000164
:01009b000262
:01009c000261
:01009d00035f
:01009e000160
:01009f000060
:0100a000015e
:0100a100005e
:0100a200025b
:0100a3000359
:0100a4000259
:0100a5000159
:0100a6000356
:0100a7000157
:0100a8000156
:0100a9000155
:0100aa000352
:0100ab000054
:0100ac000251
:0100ad00034f
:0100ae00034e
:0100af000050
:0100b000024d
:0100b100004e
:0100b200024b
:0100b300024a
:0100b400014a
:0100b500004a
:0100b6000148
:0100b7000246
:0100b8000146
:0100b9000145
:0100ba000045
:0100bb000044
:0100bc000142
:0100bd000042
:0100be000041
:0100bf00023e
:0100c000013e
:0100c100013d
:0100c200003d
:0100c300023a
:0100c400013a
:0100c5000337
:0100c6000039
:0100c7000137
:0100c8000334
:0100c9000135
:0100ca000332
:0100cb000133
:0100cc000132
:0100cd000131
:0100ce000031
:0100cf00032d
:0100d000022d
:0100d100012d
:0100d200012c
:0100d3000329
:0100d400012a
:0100d500002a
:0100d6000128
:0100d7000325
:0100d8000324
:0100d9000026
:0100da000322
:0100db000123
:0100dc000221
:0100dd000121
:0100de00021f
:0100df00021e
:0100e000031c
:0100e100001e
:0100e200031a
:0100e300021a
:0100e4000318
:0100e500001a
:0100e6000316
:0100e7000117
:0100e8000017
:0100e9000115
:0100ea000114
:0100eb000311
:0100ec000310
:0100ed000111
:0100ee000110
:0100ef00020e
:0100f000010e
:0100f100020c
:0100f200000d
:0100f300010b
:0100f400010a
:0100f500000a
:0100f6000306
:0100f7000206
:0100f8000106
:0100f9000204
:0100fa000302
:0100fb000004
:0100fc000300
:0100fd0003ff
:0100fe0002ff
:0100ff0001ff
:00000001FF
